{
  "_format": "hh3-artifact-1",
  "contractName": "CulturalProof",
  "sourceName": "contracts/CulturalProof.sol",
  "abi": [
    {
      "inputs": [],
      "stateMutability": "nonpayable",
      "type": "constructor"
    },
    {
      "inputs": [
        {
          "internalType": "address",
          "name": "sender",
          "type": "address"
        },
        {
          "internalType": "uint256",
          "name": "tokenId",
          "type": "uint256"
        },
        {
          "internalType": "address",
          "name": "owner",
          "type": "address"
        }
      ],
      "name": "ERC721IncorrectOwner",
      "type": "error"
    },
    {
      "inputs": [
        {
          "internalType": "address",
          "name": "operator",
          "type": "address"
        },
        {
          "internalType": "uint256",
          "name": "tokenId",
          "type": "uint256"
        }
      ],
      "name": "ERC721InsufficientApproval",
      "type": "error"
    },
    {
      "inputs": [
        {
          "internalType": "address",
          "name": "approver",
          "type": "address"
        }
      ],
      "name": "ERC721InvalidApprover",
      "type": "error"
    },
    {
      "inputs": [
        {
          "internalType": "address",
          "name": "operator",
          "type": "address"
        }
      ],
      "name": "ERC721InvalidOperator",
      "type": "error"
    },
    {
      "inputs": [
        {
          "internalType": "address",
          "name": "owner",
          "type": "address"
        }
      ],
      "name": "ERC721InvalidOwner",
      "type": "error"
    },
    {
      "inputs": [
        {
          "internalType": "address",
          "name": "receiver",
          "type": "address"
        }
      ],
      "name": "ERC721InvalidReceiver",
      "type": "error"
    },
    {
      "inputs": [
        {
          "internalType": "address",
          "name": "sender",
          "type": "address"
        }
      ],
      "name": "ERC721InvalidSender",
      "type": "error"
    },
    {
      "inputs": [
        {
          "internalType": "uint256",
          "name": "tokenId",
          "type": "uint256"
        }
      ],
      "name": "ERC721NonexistentToken",
      "type": "error"
    },
    {
      "inputs": [
        {
          "internalType": "address",
          "name": "owner",
          "type": "address"
        }
      ],
      "name": "OwnableInvalidOwner",
      "type": "error"
    },
    {
      "inputs": [
        {
          "internalType": "address",
          "name": "account",
          "type": "address"
        }
      ],
      "name": "OwnableUnauthorizedAccount",
      "type": "error"
    },
    {
      "anonymous": false,
      "inputs": [
        {
          "indexed": true,
          "internalType": "address",
          "name": "owner",
          "type": "address"
        },
        {
          "indexed": true,
          "internalType": "address",
          "name": "approved",
          "type": "address"
        },
        {
          "indexed": true,
          "internalType": "uint256",
          "name": "tokenId",
          "type": "uint256"
        }
      ],
      "name": "Approval",
      "type": "event"
    },
    {
      "anonymous": false,
      "inputs": [
        {
          "indexed": true,
          "internalType": "address",
          "name": "owner",
          "type": "address"
        },
        {
          "indexed": true,
          "internalType": "address",
          "name": "operator",
          "type": "address"
        },
        {
          "indexed": false,
          "internalType": "bool",
          "name": "approved",
          "type": "bool"
        }
      ],
      "name": "ApprovalForAll",
      "type": "event"
    },
    {
      "anonymous": false,
      "inputs": [
        {
          "indexed": true,
          "internalType": "address",
          "name": "previousOwner",
          "type": "address"
        },
        {
          "indexed": true,
          "internalType": "address",
          "name": "newOwner",
          "type": "address"
        }
      ],
      "name": "OwnershipTransferred",
      "type": "event"
    },
    {
      "anonymous": false,
      "inputs": [
        {
          "indexed": true,
          "internalType": "uint256",
          "name": "tokenId",
          "type": "uint256"
        },
        {
          "indexed": false,
          "internalType": "string",
          "name": "storyId",
          "type": "string"
        },
        {
          "indexed": true,
          "internalType": "address",
          "name": "contributor",
          "type": "address"
        },
        {
          "indexed": false,
          "internalType": "string",
          "name": "ipfsHash",
          "type": "string"
        }
      ],
      "name": "StoryPreserved",
      "type": "event"
    },
    {
      "anonymous": false,
      "inputs": [
        {
          "indexed": true,
          "internalType": "address",
          "name": "from",
          "type": "address"
        },
        {
          "indexed": true,
          "internalType": "address",
          "name": "to",
          "type": "address"
        },
        {
          "indexed": true,
          "internalType": "uint256",
          "name": "tokenId",
          "type": "uint256"
        }
      ],
      "name": "Transfer",
      "type": "event"
    },
    {
      "inputs": [
        {
          "internalType": "address",
          "name": "to",
          "type": "address"
        },
        {
          "internalType": "uint256",
          "name": "tokenId",
          "type": "uint256"
        }
      ],
      "name": "approve",
      "outputs": [],
      "stateMutability": "nonpayable",
      "type": "function"
    },
    {
      "inputs": [
        {
          "internalType": "address",
          "name": "owner",
          "type": "address"
        }
      ],
      "name": "balanceOf",
      "outputs": [
        {
          "internalType": "uint256",
          "name": "",
          "type": "uint256"
        }
      ],
      "stateMutability": "view",
      "type": "function"
    },
    {
      "inputs": [
        {
          "internalType": "uint256",
          "name": "",
          "type": "uint256"
        }
      ],
      "name": "culturalData",
      "outputs": [
        {
          "internalType": "string",
          "name": "storyId",
          "type": "string"
        },
        {
          "internalType": "string",
          "name": "title",
          "type": "string"
        },
        {
          "internalType": "string",
          "name": "language",
          "type": "string"
        },
        {
          "internalType": "string",
          "name": "region",
          "type": "string"
        },
        {
          "internalType": "uint256",
          "name": "timestamp",
          "type": "uint256"
        },
        {
          "internalType": "string",
          "name": "ipfsHash",
          "type": "string"
        },
        {
          "internalType": "address",
          "name": "contributor",
          "type": "address"
        }
      ],
      "stateMutability": "view",
      "type": "function"
    },
    {
      "inputs": [
        {
          "internalType": "uint256",
          "name": "tokenId",
          "type": "uint256"
        }
      ],
      "name": "getApproved",
      "outputs": [
        {
          "internalType": "address",
          "name": "",
          "type": "address"
        }
      ],
      "stateMutability": "view",
      "type": "function"
    },
    {
      "inputs": [
        {
          "internalType": "string",
          "name": "storyId",
          "type": "string"
        }
      ],
      "name": "getStoryByStoryId",
      "outputs": [
        {
          "components": [
            {
              "internalType": "string",
              "name": "storyId",
              "type": "string"
            },
            {
              "internalType": "string",
              "name": "title",
              "type": "string"
            },
            {
              "internalType": "string",
              "name": "language",
              "type": "string"
            },
            {
              "internalType": "string",
              "name": "region",
              "type": "string"
            },
            {
              "internalType": "uint256",
              "name": "timestamp",
              "type": "uint256"
            },
            {
              "internalType": "string",
              "name": "ipfsHash",
              "type": "string"
            },
            {
              "internalType": "address",
              "name": "contributor",
              "type": "address"
            }
          ],
          "internalType": "struct CulturalProof.CulturalData",
          "name": "",
          "type": "tuple"
        }
      ],
      "stateMutability": "view",
      "type": "function"
    },
    {
      "inputs": [
        {
          "internalType": "address",
          "name": "owner",
          "type": "address"
        },
        {
          "internalType": "address",
          "name": "operator",
          "type": "address"
        }
      ],
      "name": "isApprovedForAll",
      "outputs": [
        {
          "internalType": "bool",
          "name": "",
          "type": "bool"
        }
      ],
      "stateMutability": "view",
      "type": "function"
    },
    {
      "inputs": [],
      "name": "name",
      "outputs": [
        {
          "internalType": "string",
          "name": "",
          "type": "string"
        }
      ],
      "stateMutability": "view",
      "type": "function"
    },
    {
      "inputs": [],
      "name": "owner",
      "outputs": [
        {
          "internalType": "address",
          "name": "",
          "type": "address"
        }
      ],
      "stateMutability": "view",
      "type": "function"
    },
    {
      "inputs": [
        {
          "internalType": "uint256",
          "name": "tokenId",
          "type": "uint256"
        }
      ],
      "name": "ownerOf",
      "outputs": [
        {
          "internalType": "address",
          "name": "",
          "type": "address"
        }
      ],
      "stateMutability": "view",
      "type": "function"
    },
    {
      "inputs": [
        {
          "internalType": "string",
          "name": "storyId",
          "type": "string"
        },
        {
          "internalType": "string",
          "name": "title",
          "type": "string"
        },
        {
          "internalType": "string",
          "name": "language",
          "type": "string"
        },
        {
          "internalType": "string",
          "name": "region",
          "type": "string"
        },
        {
          "internalType": "string",
          "name": "ipfsHash",
          "type": "string"
        }
      ],
      "name": "preserveStory",
      "outputs": [
        {
          "internalType": "uint256",
          "name": "",
          "type": "uint256"
        }
      ],
      "stateMutability": "nonpayable",
      "type": "function"
    },
    {
      "inputs": [],
      "name": "renounceOwnership",
      "outputs": [],
      "stateMutability": "nonpayable",
      "type": "function"
    },
    {
      "inputs": [
        {
          "internalType": "address",
          "name": "from",
          "type": "address"
        },
        {
          "internalType": "address",
          "name": "to",
          "type": "address"
        },
        {
          "internalType": "uint256",
          "name": "tokenId",
          "type": "uint256"
        }
      ],
      "name": "safeTransferFrom",
      "outputs": [],
      "stateMutability": "nonpayable",
      "type": "function"
    },
    {
      "inputs": [
        {
          "internalType": "address",
          "name": "from",
          "type": "address"
        },
        {
          "internalType": "address",
          "name": "to",
          "type": "address"
        },
        {
          "internalType": "uint256",
          "name": "tokenId",
          "type": "uint256"
        },
        {
          "internalType": "bytes",
          "name": "data",
          "type": "bytes"
        }
      ],
      "name": "safeTransferFrom",
      "outputs": [],
      "stateMutability": "nonpayable",
      "type": "function"
    },
    {
      "inputs": [
        {
          "internalType": "address",
          "name": "operator",
          "type": "address"
        },
        {
          "internalType": "bool",
          "name": "approved",
          "type": "bool"
        }
      ],
      "name": "setApprovalForAll",
      "outputs": [],
      "stateMutability": "nonpayable",
      "type": "function"
    },
    {
      "inputs": [
        {
          "internalType": "string",
          "name": "storyId",
          "type": "string"
        }
      ],
      "name": "storyAlreadyPreserved",
      "outputs": [
        {
          "internalType": "bool",
          "name": "",
          "type": "bool"
        }
      ],
      "stateMutability": "view",
      "type": "function"
    },
    {
      "inputs": [
        {
          "internalType": "string",
          "name": "",
          "type": "string"
        }
      ],
      "name": "storyToTokenId",
      "outputs": [
        {
          "internalType": "uint256",
          "name": "",
          "type": "uint256"
        }
      ],
      "stateMutability": "view",
      "type": "function"
    },
    {
      "inputs": [
        {
          "internalType": "bytes4",
          "name": "interfaceId",
          "type": "bytes4"
        }
      ],
      "name": "supportsInterface",
      "outputs": [
        {
          "internalType": "bool",
          "name": "",
          "type": "bool"
        }
      ],
      "stateMutability": "view",
      "type": "function"
    },
    {
      "inputs": [],
      "name": "symbol",
      "outputs": [
        {
          "internalType": "string",
          "name": "",
          "type": "string"
        }
      ],
      "stateMutability": "view",
      "type": "function"
    },
    {
      "inputs": [
        {
          "internalType": "uint256",
          "name": "tokenId",
          "type": "uint256"
        }
      ],
      "name": "tokenURI",
      "outputs": [
        {
          "internalType": "string",
          "name": "",
          "type": "string"
        }
      ],
      "stateMutability": "view",
      "type": "function"
    },
    {
      "inputs": [],
      "name": "totalStories",
      "outputs": [
        {
          "internalType": "uint256",
          "name": "",
          "type": "uint256"
        }
      ],
      "stateMutability": "view",
      "type": "function"
    },
    {
      "inputs": [
        {
          "internalType": "address",
          "name": "from",
          "type": "address"
        },
        {
          "internalType": "address",
          "name": "to",
          "type": "address"
        },
        {
          "internalType": "uint256",
          "name": "tokenId",
          "type": "uint256"
        }
      ],
      "name": "transferFrom",
      "outputs": [],
      "stateMutability": "nonpayable",
      "type": "function"
    },
    {
      "inputs": [
        {
          "internalType": "address",
          "name": "newOwner",
          "type": "address"
        }
      ],
      "name": "transferOwnership",
      "outputs": [],
      "stateMutability": "nonpayable",
      "type": "function"
    },
    {
      "inputs": [
        {
          "internalType": "uint256",
          "name": "tokenId",
          "type": "uint256"
        }
      ],
      "name": "verifyStory",
      "outputs": [
        {
          "components": [
            {
              "internalType": "string",
              "name": "storyId",
              "type": "string"
            },
            {
              "internalType": "string",
              "name": "title",
              "type": "string"
            },
            {
              "internalType": "string",
              "name": "language",
              "type": "string"
            },
            {
              "internalType": "string",
              "name": "region",
              "type": "string"
            },
            {
              "internalType": "uint256",
              "name": "timestamp",
              "type": "uint256"
            },
            {
              "internalType": "string",
              "name": "ipfsHash",
              "type": "string"
            },
            {
              "internalType": "address",
              "name": "contributor",
              "type": "address"
            }
          ],
          "internalType": "struct CulturalProof.CulturalData",
          "name": "",
          "type": "tuple"
        }
      ],
      "stateMutability": "view",
      "type": "function"
    }
  ],
  "bytecode": "0x608060405234801561000f575f80fd5b50336040518060400160405280601681526020017f55686f646172692043756c747572616c2050726f6f66000000000000000000008152506040518060400160405280600781526020017f55484f4441524900000000000000000000000000000000000000000000000000815250815f908161008b9190610420565b50806001908161009b9190610420565b5050505f73ffffffffffffffffffffffffffffffffffffffff168173ffffffffffffffffffffffffffffffffffffffff160361010e575f6040517f1e4fbdf7000000000000000000000000000000000000000000000000000000008152600401610105919061052e565b60405180910390fd5b61011d8161012360201b60201c565b50610547565b5f60065f9054906101000a900473ffffffffffffffffffffffffffffffffffffffff1690508160065f6101000a81548173ffffffffffffffffffffffffffffffffffffffff021916908373ffffffffffffffffffffffffffffffffffffffff1602179055508173ffffffffffffffffffffffffffffffffffffffff168173ffffffffffffffffffffffffffffffffffffffff167f8be0079c531659141344cd1fd0a4f28419497f9722a3daafe3b4186f6b6457e060405160405180910390a35050565b5f81519050919050565b7f4e487b71000000000000000000000000000000000000000000000000000000005f52604160045260245ffd5b7f4e487b71000000000000000000000000000000000000000000000000000000005f52602260045260245ffd5b5f600282049050600182168061026157607f821691505b6020821081036102745761027361021d565b5b50919050565b5f819050815f5260205f209050919050565b5f6020601f8301049050919050565b5f82821b905092915050565b5f600883026102d67fffffffffffffffffffffffffffffffffffffffffffffffffffffffffffffffff8261029b565b6102e0868361029b565b95508019841693508086168417925050509392505050565b5f819050919050565b5f819050919050565b5f61032461031f61031a846102f8565b610301565b6102f8565b9050919050565b5f819050919050565b61033d8361030a565b6103516103498261032b565b8484546102a7565b825550505050565b5f90565b610365610359565b610370818484610334565b505050565b5b81811015610393576103885f8261035d565b600181019050610376565b5050565b601f8211156103d8576103a98161027a565b6103b28461028c565b810160208510156103c1578190505b6103d56103cd8561028c565b830182610375565b50505b505050565b5f82821c905092915050565b5f6103f85f19846008026103dd565b1980831691505092915050565b5f61041083836103e9565b9150826002028217905092915050565b610429826101e6565b67ffffffffffffffff811115610442576104416101f0565b5b61044c825461024a565b610457828285610397565b5f60209050601f831160018114610488575f8415610476578287015190505b6104808582610405565b8655506104e7565b601f1984166104968661027a565b5f5b828110156104bd57848901518255600182019150602085019450602081019050610498565b868310156104da57848901516104d6601f8916826103e9565b8355505b6001600288020188555050505b505050505050565b5f73ffffffffffffffffffffffffffffffffffffffff82169050919050565b5f610518826104ef565b9050919050565b6105288161050e565b82525050565b5f6020820190506105415f83018461051f565b92915050565b61380e806105545f395ff3fe608060405234801561000f575f80fd5b506004361061014b575f3560e01c806382be520e116100c1578063b88d4fde1161007a578063b88d4fde146103d9578063c5a580e4146103f5578063c87b56dd14610413578063e7fee66c14610443578063e985e9c514610473578063f2fde38b146104a35761014b565b806382be520e146102eb5780638da5cb5b1461031b57806395d89b41146103395780639f62e75a14610357578063a22cb46514610387578063af08b327146103a35761014b565b806342842e0e1161011357806342842e0e146102055780636352211e1461022157806363ea86a81461025157806370a0823114610281578063715018a6146102b157806375f7f5c7146102bb5761014b565b806301ffc9a71461014f57806306fdde031461017f578063081812fc1461019d578063095ea7b3146101cd57806323b872dd146101e9575b5f80fd5b6101696004803603810190610164919061283b565b6104bf565b6040516101769190612880565b60405180910390f35b6101876105a0565b6040516101949190612909565b60405180910390f35b6101b760048036038101906101b2919061295c565b61062f565b6040516101c491906129c6565b60405180910390f35b6101e760048036038101906101e29190612a09565b61064a565b005b61020360048036038101906101fe9190612a47565b610660565b005b61021f600480360381019061021a9190612a47565b61075f565b005b61023b6004803603810190610236919061295c565b61077e565b60405161024891906129c6565b60405180910390f35b61026b60048036038101906102669190612bc3565b61078f565b6040516102789190612cd5565b60405180910390f35b61029b60048036038101906102969190612cee565b610a74565b6040516102a89190612cd5565b60405180910390f35b6102b9610b2a565b005b6102d560048036038101906102d09190612d19565b610b3d565b6040516102e29190612e7b565b60405180910390f35b6103056004803603810190610300919061295c565b610f1e565b6040516103129190612e7b565b60405180910390f35b6103236112bb565b60405161033091906129c6565b60405180910390f35b6103416112e3565b60405161034e9190612909565b60405180910390f35b610371600480360381019061036c9190612d19565b611373565b60405161037e9190612880565b60405180910390f35b6103a1600480360381019061039c9190612ec5565b6113a6565b005b6103bd60048036038101906103b8919061295c565b6113bc565b6040516103d09796959493929190612f03565b60405180910390f35b6103f360048036038101906103ee9190613031565b6116b7565b005b6103fd6116dc565b60405161040a9190612cd5565b60405180910390f35b61042d6004803603810190610428919061295c565b6116e5565b60405161043a9190612909565b60405180910390f35b61045d60048036038101906104589190612d19565b61174b565b60405161046a9190612cd5565b60405180910390f35b61048d600480360381019061048891906130b1565b611778565b60405161049a9190612880565b60405180910390f35b6104bd60048036038101906104b89190612cee565b611806565b005b5f7f80ac58cd000000000000000000000000000000000000000000000000000000007bffffffffffffffffffffffffffffffffffffffffffffffffffffffff1916827bffffffffffffffffffffffffffffffffffffffffffffffffffffffff1916148061058957507f5b5e139f000000000000000000000000000000000000000000000000000000007bffffffffffffffffffffffffffffffffffffffffffffffffffffffff1916827bffffffffffffffffffffffffffffffffffffffffffffffffffffffff1916145b8061059957506105988261188a565b5b9050919050565b60605f80546105ae9061311c565b80601f01602080910402602001604051908101604052809291908181526020018280546105da9061311c565b80156106255780601f106105fc57610100808354040283529160200191610625565b820191905f5260205f20905b81548152906001019060200180831161060857829003601f168201915b5050505050905090565b5f610639826118f3565b5061064382611979565b9050919050565b61065c82826106576119b2565b6119b9565b5050565b5f73ffffffffffffffffffffffffffffffffffffffff168273ffffffffffffffffffffffffffffffffffffffff16036106d0575f6040517f64a0ae920000000000000000000000000000000000000000000000000000000081526004016106c791906129c6565b60405180910390fd5b5f6106e383836106de6119b2565b6119cb565b90508373ffffffffffffffffffffffffffffffffffffffff168173ffffffffffffffffffffffffffffffffffffffff1614610759578382826040517f64283d7b0000000000000000000000000000000000000000000000000000000081526004016107509392919061314c565b60405180910390fd5b50505050565b61077983838360405180602001604052805f8152506116b7565b505050565b5f610788826118f3565b9050919050565b5f808651116107d3576040517f08c379a00000000000000000000000000000000000000000000000000000000081526004016107ca906131cb565b60405180910390fd5b5f825111610816576040517f08c379a000000000000000000000000000000000000000000000000000000000815260040161080d90613233565b60405180910390fd5b600986604051610826919061328b565b90815260200160405180910390205f9054906101000a900460ff1615610881576040517f08c379a0000000000000000000000000000000000000000000000000000000008152600401610878906132eb565b60405180910390fd5b5f60075f81548092919061089490613336565b9190505590506108a43382611bd6565b6040518060e001604052808881526020018781526020018681526020018581526020014281526020018481526020013373ffffffffffffffffffffffffffffffffffffffff1681525060085f8381526020019081526020015f205f820151815f019081610911919061351a565b506020820151816001019081610927919061351a565b50604082015181600201908161093d919061351a565b506060820151816003019081610953919061351a565b506080820151816004015560a0820151816005019081610973919061351a565b5060c0820151816006015f6101000a81548173ffffffffffffffffffffffffffffffffffffffff021916908373ffffffffffffffffffffffffffffffffffffffff16021790555090505060016009886040516109cf919061328b565b90815260200160405180910390205f6101000a81548160ff02191690831515021790555080600a88604051610a04919061328b565b9081526020016040518091039020819055503373ffffffffffffffffffffffffffffffffffffffff16817fd40a257c82e05b26e99f1c157eaf085bba7233b52d4cda673a8ece97759d40638986604051610a5f9291906135e9565b60405180910390a38091505095945050505050565b5f8073ffffffffffffffffffffffffffffffffffffffff168273ffffffffffffffffffffffffffffffffffffffff1603610ae5575f6040517f89c62b64000000000000000000000000000000000000000000000000000000008152600401610adc91906129c6565b60405180910390fd5b60035f8373ffffffffffffffffffffffffffffffffffffffff1673ffffffffffffffffffffffffffffffffffffffff1681526020019081526020015f20549050919050565b610b32611bf3565b610b3b5f611c7a565b565b610b45612784565b600982604051610b55919061328b565b90815260200160405180910390205f9054906101000a900460ff16610baf576040517f08c379a0000000000000000000000000000000000000000000000000000000008152600401610ba690613668565b60405180910390fd5b60085f600a84604051610bc2919061328b565b90815260200160405180910390205481526020019081526020015f206040518060e00160405290815f82018054610bf89061311c565b80601f0160208091040260200160405190810160405280929190818152602001828054610c249061311c565b8015610c6f5780601f10610c4657610100808354040283529160200191610c6f565b820191905f5260205f20905b815481529060010190602001808311610c5257829003601f168201915b50505050508152602001600182018054610c889061311c565b80601f0160208091040260200160405190810160405280929190818152602001828054610cb49061311c565b8015610cff5780601f10610cd657610100808354040283529160200191610cff565b820191905f5260205f20905b815481529060010190602001808311610ce257829003601f168201915b50505050508152602001600282018054610d189061311c565b80601f0160208091040260200160405190810160405280929190818152602001828054610d449061311c565b8015610d8f5780601f10610d6657610100808354040283529160200191610d8f565b820191905f5260205f20905b815481529060010190602001808311610d7257829003601f168201915b50505050508152602001600382018054610da89061311c565b80601f0160208091040260200160405190810160405280929190818152602001828054610dd49061311c565b8015610e1f5780601f10610df657610100808354040283529160200191610e1f565b820191905f5260205f20905b815481529060010190602001808311610e0257829003601f168201915b5050505050815260200160048201548152602001600582018054610e429061311c565b80601f0160208091040260200160405190810160405280929190818152602001828054610e6e9061311c565b8015610eb95780601f10610e9057610100808354040283529160200191610eb9565b820191905f5260205f20905b815481529060010190602001808311610e9c57829003601f168201915b50505050508152602001600682015f9054906101000a900473ffffffffffffffffffffffffffffffffffffffff1673ffffffffffffffffffffffffffffffffffffffff1673ffffffffffffffffffffffffffffffffffffffff16815250509050919050565b610f26612784565b6007548210610f6a576040517f08c379a0000000000000000000000000000000000000000000000000000000008152600401610f6190613668565b60405180910390fd5b60085f8381526020019081526020015f206040518060e00160405290815f82018054610f959061311c565b80601f0160208091040260200160405190810160405280929190818152602001828054610fc19061311c565b801561100c5780601f10610fe35761010080835404028352916020019161100c565b820191905f5260205f20905b815481529060010190602001808311610fef57829003601f168201915b505050505081526020016001820180546110259061311c565b80601f01602080910402602001604051908101604052809291908181526020018280546110519061311c565b801561109c5780601f106110735761010080835404028352916020019161109c565b820191905f5260205f20905b81548152906001019060200180831161107f57829003601f168201915b505050505081526020016002820180546110b59061311c565b80601f01602080910402602001604051908101604052809291908181526020018280546110e19061311c565b801561112c5780601f106111035761010080835404028352916020019161112c565b820191905f5260205f20905b81548152906001019060200180831161110f57829003601f168201915b505050505081526020016003820180546111459061311c565b80601f01602080910402602001604051908101604052809291908181526020018280546111719061311c565b80156111bc5780601f10611193576101008083540402835291602001916111bc565b820191905f5260205f20905b81548152906001019060200180831161119f57829003601f168201915b50505050508152602001600482015481526020016005820180546111df9061311c565b80601f016020809104026020016040519081016040528092919081815260200182805461120b9061311c565b80156112565780601f1061122d57610100808354040283529160200191611256565b820191905f5260205f20905b81548152906001019060200180831161123957829003601f168201915b50505050508152602001600682015f9054906101000a900473ffffffffffffffffffffffffffffffffffffffff1673ffffffffffffffffffffffffffffffffffffffff1673ffffffffffffffffffffffffffffffffffffffff16815250509050919050565b5f60065f9054906101000a900473ffffffffffffffffffffffffffffffffffffffff16905090565b6060600180546112f29061311c565b80601f016020809104026020016040519081016040528092919081815260200182805461131e9061311c565b80156113695780601f1061134057610100808354040283529160200191611369565b820191905f5260205f20905b81548152906001019060200180831161134c57829003601f168201915b5050505050905090565b5f600982604051611384919061328b565b90815260200160405180910390205f9054906101000a900460ff169050919050565b6113b86113b16119b2565b8383611d3d565b5050565b6008602052805f5260405f205f91509050805f0180546113db9061311c565b80601f01602080910402602001604051908101604052809291908181526020018280546114079061311c565b80156114525780601f1061142957610100808354040283529160200191611452565b820191905f5260205f20905b81548152906001019060200180831161143557829003601f168201915b5050505050908060010180546114679061311c565b80601f01602080910402602001604051908101604052809291908181526020018280546114939061311c565b80156114de5780601f106114b5576101008083540402835291602001916114de565b820191905f5260205f20905b8154815290600101906020018083116114c157829003601f168201915b5050505050908060020180546114f39061311c565b80601f016020809104026020016040519081016040528092919081815260200182805461151f9061311c565b801561156a5780601f106115415761010080835404028352916020019161156a565b820191905f5260205f20905b81548152906001019060200180831161154d57829003601f168201915b50505050509080600301805461157f9061311c565b80601f01602080910402602001604051908101604052809291908181526020018280546115ab9061311c565b80156115f65780601f106115cd576101008083540402835291602001916115f6565b820191905f5260205f20905b8154815290600101906020018083116115d957829003601f168201915b5050505050908060040154908060050180546116119061311c565b80601f016020809104026020016040519081016040528092919081815260200182805461163d9061311c565b80156116885780601f1061165f57610100808354040283529160200191611688565b820191905f5260205f20905b81548152906001019060200180831161166b57829003601f168201915b505050505090806006015f9054906101000a900473ffffffffffffffffffffffffffffffffffffffff16905087565b6116c2848484610660565b6116d66116cd6119b2565b85858585611f16565b50505050565b5f600754905090565b60606116f0826118f3565b505f6116fa6120c2565b90505f8151116117185760405180602001604052805f815250611743565b80611722846120d8565b604051602001611733929190613686565b6040516020818303038152906040525b915050919050565b600a818051602081018201805184825260208301602085012081835280955050505050505f915090505481565b5f60055f8473ffffffffffffffffffffffffffffffffffffffff1673ffffffffffffffffffffffffffffffffffffffff1681526020019081526020015f205f8373ffffffffffffffffffffffffffffffffffffffff1673ffffffffffffffffffffffffffffffffffffffff1681526020019081526020015f205f9054906101000a900460ff16905092915050565b61180e611bf3565b5f73ffffffffffffffffffffffffffffffffffffffff168173ffffffffffffffffffffffffffffffffffffffff160361187e575f6040517f1e4fbdf700000000000000000000000000000000000000000000000000000000815260040161187591906129c6565b60405180910390fd5b61188781611c7a565b50565b5f7f01ffc9a7000000000000000000000000000000000000000000000000000000007bffffffffffffffffffffffffffffffffffffffffffffffffffffffff1916827bffffffffffffffffffffffffffffffffffffffffffffffffffffffff1916149050919050565b5f806118fe836121a2565b90505f73ffffffffffffffffffffffffffffffffffffffff168173ffffffffffffffffffffffffffffffffffffffff160361197057826040517f7e2732890000000000000000000000000000000000000000000000000000000081526004016119679190612cd5565b60405180910390fd5b80915050919050565b5f60045f8381526020019081526020015f205f9054906101000a900473ffffffffffffffffffffffffffffffffffffffff169050919050565b5f33905090565b6119c683838360016121db565b505050565b5f806119d6846121a2565b90505f73ffffffffffffffffffffffffffffffffffffffff168373ffffffffffffffffffffffffffffffffffffffff1614611a1757611a1681848661239a565b5b5f73ffffffffffffffffffffffffffffffffffffffff168173ffffffffffffffffffffffffffffffffffffffff1614611aa257611a565f855f806121db565b600160035f8373ffffffffffffffffffffffffffffffffffffffff1673ffffffffffffffffffffffffffffffffffffffff1681526020019081526020015f205f82825403925050819055505b5f73ffffffffffffffffffffffffffffffffffffffff168573ffffffffffffffffffffffffffffffffffffffff1614611b2157600160035f8773ffffffffffffffffffffffffffffffffffffffff1673ffffffffffffffffffffffffffffffffffffffff1681526020019081526020015f205f82825401925050819055505b8460025f8681526020019081526020015f205f6101000a81548173ffffffffffffffffffffffffffffffffffffffff021916908373ffffffffffffffffffffffffffffffffffffffff160217905550838573ffffffffffffffffffffffffffffffffffffffff168273ffffffffffffffffffffffffffffffffffffffff167fddf252ad1be2c89b69c2b068fc378daa952ba7f163c4a11628f55a4df523b3ef60405160405180910390a4809150509392505050565b611bef828260405180602001604052805f81525061245d565b5050565b611bfb6119b2565b73ffffffffffffffffffffffffffffffffffffffff16611c196112bb565b73ffffffffffffffffffffffffffffffffffffffff1614611c7857611c3c6119b2565b6040517f118cdaa7000000000000000000000000000000000000000000000000000000008152600401611c6f91906129c6565b60405180910390fd5b565b5f60065f9054906101000a900473ffffffffffffffffffffffffffffffffffffffff1690508160065f6101000a81548173ffffffffffffffffffffffffffffffffffffffff021916908373ffffffffffffffffffffffffffffffffffffffff1602179055508173ffffffffffffffffffffffffffffffffffffffff168173ffffffffffffffffffffffffffffffffffffffff167f8be0079c531659141344cd1fd0a4f28419497f9722a3daafe3b4186f6b6457e060405160405180910390a35050565b5f73ffffffffffffffffffffffffffffffffffffffff168373ffffffffffffffffffffffffffffffffffffffff1603611dad575f6040517fa9fbf51f000000000000000000000000000000000000000000000000000000008152600401611da491906129c6565b60405180910390fd5b5f73ffffffffffffffffffffffffffffffffffffffff168273ffffffffffffffffffffffffffffffffffffffff1603611e1d57816040517f5b08ba18000000000000000000000000000000000000000000000000000000008152600401611e1491906129c6565b60405180910390fd5b8060055f8573ffffffffffffffffffffffffffffffffffffffff1673ffffffffffffffffffffffffffffffffffffffff1681526020019081526020015f205f8473ffffffffffffffffffffffffffffffffffffffff1673ffffffffffffffffffffffffffffffffffffffff1681526020019081526020015f205f6101000a81548160ff0219169083151502179055508173ffffffffffffffffffffffffffffffffffffffff168373ffffffffffffffffffffffffffffffffffffffff167f17307eab39ab6107e8899845ad3d59bd9653f200f220920489ca2b5937696c3183604051611f099190612880565b60405180910390a3505050565b5f8373ffffffffffffffffffffffffffffffffffffffff163b11156120bb578273ffffffffffffffffffffffffffffffffffffffff1663150b7a02868685856040518563ffffffff1660e01b8152600401611f7494939291906136fb565b6020604051808303815f875af1925050508015611faf57506040513d601f19601f82011682018060405250810190611fac9190613759565b60015b612030573d805f8114611fdd576040519150601f19603f3d011682016040523d82523d5f602084013e611fe2565b606091505b505f81510361202857836040517f64a0ae9200000000000000000000000000000000000000000000000000000000815260040161201f91906129c6565b60405180910390fd5b805160208201fd5b63150b7a0260e01b7bffffffffffffffffffffffffffffffffffffffffffffffffffffffff1916817bffffffffffffffffffffffffffffffffffffffffffffffffffffffff1916146120b957836040517f64a0ae920000000000000000000000000000000000000000000000000000000081526004016120b091906129c6565b60405180910390fd5b505b5050505050565b606060405180602001604052805f815250905090565b60605f60016120e684612480565b0190505f8167ffffffffffffffff81111561210457612103612a9f565b5b6040519080825280601f01601f1916602001820160405280156121365781602001600182028036833780820191505090505b5090505f82602083010190505b600115612197578080600190039150507f3031323334353637383961626364656600000000000000000000000000000000600a86061a8153600a858161218c5761218b613784565b5b0494505f8503612143575b819350505050919050565b5f60025f8381526020019081526020015f205f9054906101000a900473ffffffffffffffffffffffffffffffffffffffff169050919050565b808061221357505f73ffffffffffffffffffffffffffffffffffffffff168273ffffffffffffffffffffffffffffffffffffffff1614155b15612345575f612222846118f3565b90505f73ffffffffffffffffffffffffffffffffffffffff168373ffffffffffffffffffffffffffffffffffffffff161415801561228c57508273ffffffffffffffffffffffffffffffffffffffff168173ffffffffffffffffffffffffffffffffffffffff1614155b801561229f575061229d8184611778565b155b156122e157826040517fa9fbf51f0000000000000000000000000000000000000000000000000000000081526004016122d891906129c6565b60405180910390fd5b811561234357838573ffffffffffffffffffffffffffffffffffffffff168273ffffffffffffffffffffffffffffffffffffffff167f8c5be1e5ebec7d5bd14f71427d1e84f3dd0314c0f7b2291e5b200ac8c7c3b92560405160405180910390a45b505b8360045f8581526020019081526020015f205f6101000a81548173ffffffffffffffffffffffffffffffffffffffff021916908373ffffffffffffffffffffffffffffffffffffffff16021790555050505050565b6123a58383836125d1565b612458575f73ffffffffffffffffffffffffffffffffffffffff168373ffffffffffffffffffffffffffffffffffffffff160361241957806040517f7e2732890000000000000000000000000000000000000000000000000000000081526004016124109190612cd5565b60405180910390fd5b81816040517f177e802f00000000000000000000000000000000000000000000000000000000815260040161244f9291906137b1565b60405180910390fd5b505050565b6124678383612691565b61247b6124726119b2565b5f858585611f16565b505050565b5f805f90507a184f03e93ff9f4daa797ed6e38ed64bf6a1f01000000000000000083106124dc577a184f03e93ff9f4daa797ed6e38ed64bf6a1f01000000000000000083816124d2576124d1613784565b5b0492506040810190505b6d04ee2d6d415b85acef81000000008310612519576d04ee2d6d415b85acef8100000000838161250f5761250e613784565b5b0492506020810190505b662386f26fc10000831061254857662386f26fc10000838161253e5761253d613784565b5b0492506010810190505b6305f5e1008310612571576305f5e100838161256757612566613784565b5b0492506008810190505b612710831061259657612710838161258c5761258b613784565b5b0492506004810190505b606483106125b957606483816125af576125ae613784565b5b0492506002810190505b600a83106125c8576001810190505b80915050919050565b5f8073ffffffffffffffffffffffffffffffffffffffff168373ffffffffffffffffffffffffffffffffffffffff161415801561268857508273ffffffffffffffffffffffffffffffffffffffff168473ffffffffffffffffffffffffffffffffffffffff16148061264957506126488484611778565b5b8061268757508273ffffffffffffffffffffffffffffffffffffffff1661266f83611979565b73ffffffffffffffffffffffffffffffffffffffff16145b5b90509392505050565b5f73ffffffffffffffffffffffffffffffffffffffff168273ffffffffffffffffffffffffffffffffffffffff1603612701575f6040517f64a0ae920000000000000000000000000000000000000000000000000000000081526004016126f891906129c6565b60405180910390fd5b5f61270d83835f6119cb565b90505f73ffffffffffffffffffffffffffffffffffffffff168173ffffffffffffffffffffffffffffffffffffffff161461277f575f6040517f73c6ac6e00000000000000000000000000000000000000000000000000000000815260040161277691906129c6565b60405180910390fd5b505050565b6040518060e00160405280606081526020016060815260200160608152602001606081526020015f8152602001606081526020015f73ffffffffffffffffffffffffffffffffffffffff1681525090565b5f604051905090565b5f80fd5b5f80fd5b5f7fffffffff0000000000000000000000000000000000000000000000000000000082169050919050565b61281a816127e6565b8114612824575f80fd5b50565b5f8135905061283581612811565b92915050565b5f602082840312156128505761284f6127de565b5b5f61285d84828501612827565b91505092915050565b5f8115159050919050565b61287a81612866565b82525050565b5f6020820190506128935f830184612871565b92915050565b5f81519050919050565b5f82825260208201905092915050565b8281835e5f83830152505050565b5f601f19601f8301169050919050565b5f6128db82612899565b6128e581856128a3565b93506128f58185602086016128b3565b6128fe816128c1565b840191505092915050565b5f6020820190508181035f83015261292181846128d1565b905092915050565b5f819050919050565b61293b81612929565b8114612945575f80fd5b50565b5f8135905061295681612932565b92915050565b5f60208284031215612971576129706127de565b5b5f61297e84828501612948565b91505092915050565b5f73ffffffffffffffffffffffffffffffffffffffff82169050919050565b5f6129b082612987565b9050919050565b6129c0816129a6565b82525050565b5f6020820190506129d95f8301846129b7565b92915050565b6129e8816129a6565b81146129f2575f80fd5b50565b5f81359050612a03816129df565b92915050565b5f8060408385031215612a1f57612a1e6127de565b5b5f612a2c858286016129f5565b9250506020612a3d85828601612948565b9150509250929050565b5f805f60608486031215612a5e57612a5d6127de565b5b5f612a6b868287016129f5565b9350506020612a7c868287016129f5565b9250506040612a8d86828701612948565b9150509250925092565b5f80fd5b5f80fd5b7f4e487b71000000000000000000000000000000000000000000000000000000005f52604160045260245ffd5b612ad5826128c1565b810181811067ffffffffffffffff82111715612af457612af3612a9f565b5b80604052505050565b5f612b066127d5565b9050612b128282612acc565b919050565b5f67ffffffffffffffff821115612b3157612b30612a9f565b5b612b3a826128c1565b9050602081019050919050565b828183375f83830152505050565b5f612b67612b6284612b17565b612afd565b905082815260208101848484011115612b8357612b82612a9b565b5b612b8e848285612b47565b509392505050565b5f82601f830112612baa57612ba9612a97565b5b8135612bba848260208601612b55565b91505092915050565b5f805f805f60a08688031215612bdc57612bdb6127de565b5b5f86013567ffffffffffffffff811115612bf957612bf86127e2565b5b612c0588828901612b96565b955050602086013567ffffffffffffffff811115612c2657612c256127e2565b5b612c3288828901612b96565b945050604086013567ffffffffffffffff811115612c5357612c526127e2565b5b612c5f88828901612b96565b935050606086013567ffffffffffffffff811115612c8057612c7f6127e2565b5b612c8c88828901612b96565b925050608086013567ffffffffffffffff811115612cad57612cac6127e2565b5b612cb988828901612b96565b9150509295509295909350565b612ccf81612929565b82525050565b5f602082019050612ce85f830184612cc6565b92915050565b5f60208284031215612d0357612d026127de565b5b5f612d10848285016129f5565b91505092915050565b5f60208284031215612d2e57612d2d6127de565b5b5f82013567ffffffffffffffff811115612d4b57612d4a6127e2565b5b612d5784828501612b96565b91505092915050565b5f82825260208201905092915050565b5f612d7a82612899565b612d848185612d60565b9350612d948185602086016128b3565b612d9d816128c1565b840191505092915050565b612db181612929565b82525050565b612dc0816129a6565b82525050565b5f60e083015f8301518482035f860152612de08282612d70565b91505060208301518482036020860152612dfa8282612d70565b91505060408301518482036040860152612e148282612d70565b91505060608301518482036060860152612e2e8282612d70565b9150506080830151612e436080860182612da8565b5060a083015184820360a0860152612e5b8282612d70565b91505060c0830151612e7060c0860182612db7565b508091505092915050565b5f6020820190508181035f830152612e938184612dc6565b905092915050565b612ea481612866565b8114612eae575f80fd5b50565b5f81359050612ebf81612e9b565b92915050565b5f8060408385031215612edb57612eda6127de565b5b5f612ee8858286016129f5565b9250506020612ef985828601612eb1565b9150509250929050565b5f60e0820190508181035f830152612f1b818a6128d1565b90508181036020830152612f2f81896128d1565b90508181036040830152612f4381886128d1565b90508181036060830152612f5781876128d1565b9050612f666080830186612cc6565b81810360a0830152612f7881856128d1565b9050612f8760c08301846129b7565b98975050505050505050565b5f67ffffffffffffffff821115612fad57612fac612a9f565b5b612fb6826128c1565b9050602081019050919050565b5f612fd5612fd084612f93565b612afd565b905082815260208101848484011115612ff157612ff0612a9b565b5b612ffc848285612b47565b509392505050565b5f82601f83011261301857613017612a97565b5b8135613028848260208601612fc3565b91505092915050565b5f805f8060808587031215613049576130486127de565b5b5f613056878288016129f5565b9450506020613067878288016129f5565b935050604061307887828801612948565b925050606085013567ffffffffffffffff811115613099576130986127e2565b5b6130a587828801613004565b91505092959194509250565b5f80604083850312156130c7576130c66127de565b5b5f6130d4858286016129f5565b92505060206130e5858286016129f5565b9150509250929050565b7f4e487b71000000000000000000000000000000000000000000000000000000005f52602260045260245ffd5b5f600282049050600182168061313357607f821691505b602082108103613146576131456130ef565b5b50919050565b5f60608201905061315f5f8301866129b7565b61316c6020830185612cc6565b61317960408301846129b7565b949350505050565b7f53746f72792049442063616e6e6f7420626520656d70747900000000000000005f82015250565b5f6131b56018836128a3565b91506131c082613181565b602082019050919050565b5f6020820190508181035f8301526131e2816131a9565b9050919050565b7f4950465320686173682063616e6e6f7420626520656d707479000000000000005f82015250565b5f61321d6019836128a3565b9150613228826131e9565b602082019050919050565b5f6020820190508181035f83015261324a81613211565b9050919050565b5f81905092915050565b5f61326582612899565b61326f8185613251565b935061327f8185602086016128b3565b80840191505092915050565b5f613296828461325b565b915081905092915050565b7f53746f727920616c7265616479207072657365727665640000000000000000005f82015250565b5f6132d56017836128a3565b91506132e0826132a1565b602082019050919050565b5f6020820190508181035f830152613302816132c9565b9050919050565b7f4e487b71000000000000000000000000000000000000000000000000000000005f52601160045260245ffd5b5f61334082612929565b91507fffffffffffffffffffffffffffffffffffffffffffffffffffffffffffffffff820361337257613371613309565b5b600182019050919050565b5f819050815f5260205f209050919050565b5f6020601f8301049050919050565b5f82821b905092915050565b5f600883026133d97fffffffffffffffffffffffffffffffffffffffffffffffffffffffffffffffff8261339e565b6133e3868361339e565b95508019841693508086168417925050509392505050565b5f819050919050565b5f61341e61341961341484612929565b6133fb565b612929565b9050919050565b5f819050919050565b61343783613404565b61344b61344382613425565b8484546133aa565b825550505050565b5f90565b61345f613453565b61346a81848461342e565b505050565b5b8181101561348d576134825f82613457565b600181019050613470565b5050565b601f8211156134d2576134a38161337d565b6134ac8461338f565b810160208510156134bb578190505b6134cf6134c78561338f565b83018261346f565b50505b505050565b5f82821c905092915050565b5f6134f25f19846008026134d7565b1980831691505092915050565b5f61350a83836134e3565b9150826002028217905092915050565b61352382612899565b67ffffffffffffffff81111561353c5761353b612a9f565b5b613546825461311c565b613551828285613491565b5f60209050601f831160018114613582575f8415613570578287015190505b61357a85826134ff565b8655506135e1565b601f1984166135908661337d565b5f5b828110156135b757848901518255600182019150602085019450602081019050613592565b868310156135d457848901516135d0601f8916826134e3565b8355505b6001600288020188555050505b505050505050565b5f6040820190508181035f83015261360181856128d1565b9050818103602083015261361581846128d1565b90509392505050565b7f53746f7279206e6f7420666f756e6400000000000000000000000000000000005f82015250565b5f613652600f836128a3565b915061365d8261361e565b602082019050919050565b5f6020820190508181035f83015261367f81613646565b9050919050565b5f613691828561325b565b915061369d828461325b565b91508190509392505050565b5f81519050919050565b5f82825260208201905092915050565b5f6136cd826136a9565b6136d781856136b3565b93506136e78185602086016128b3565b6136f0816128c1565b840191505092915050565b5f60808201905061370e5f8301876129b7565b61371b60208301866129b7565b6137286040830185612cc6565b818103606083015261373a81846136c3565b905095945050505050565b5f8151905061375381612811565b92915050565b5f6020828403121561376e5761376d6127de565b5b5f61377b84828501613745565b91505092915050565b7f4e487b71000000000000000000000000000000000000000000000000000000005f52601260045260245ffd5b5f6040820190506137c45f8301856129b7565b6137d16020830184612cc6565b939250505056fea26469706673582212208266c7e8a20c2a1fbf3345b8ace68d9b5185d1364f5d5c1dd488bb267c26bb4664736f6c63430008190033",
  "linkReferences": {},
  "deployedLinkReferences": {},
  "immutableReferences": {},
  "inputSourceName": "project/contracts/CulturalProof.sol",
  "buildInfoId": "solc-0_8_25-15acaa5a742fc732c2de066329d38692b0d3e96e"
}